{
  "contractName": "Agreement",
  "abi": [
    {
      "constant": false,
      "inputs": [],
      "name": "deposit",
      "outputs": [
        {
          "internalType": "int256",
          "name": "",
          "type": "int256"
        }
      ],
      "payable": true,
      "stateMutability": "payable",
      "type": "function"
    },
    {
      "constant": true,
      "inputs": [],
      "name": "Balance",
      "outputs": [
        {
          "internalType": "int256",
          "name": "",
          "type": "int256"
        }
      ],
      "payable": false,
      "stateMutability": "view",
      "type": "function"
    }
  ],
  "bytecode": "0x608060405260008060006101000a81548160ff02191690831515021790555060008060016101000a81548160ff021916908315150217905550600060015534801561004957600080fd5b5061033a806100596000396000f3fe6080604052600436106100295760003560e01c80630ef678871461002e578063d0e30db014610059575b600080fd5b34801561003a57600080fd5b50610043610077565b6040518082815260200191505060405180910390f35b610061610081565b6040518082815260200191505060405180910390f35b6000600154905090565b6000600260009054906101000a900473ffffffffffffffffffffffffffffffffffffffff1673ffffffffffffffffffffffffffffffffffffffff163373ffffffffffffffffffffffffffffffffffffffff16148061012c5750600360009054906101000a900473ffffffffffffffffffffffffffffffffffffffff1673ffffffffffffffffffffffffffffffffffffffff163373ffffffffffffffffffffffffffffffffffffffff16145b61019e576040517f08c379a00000000000000000000000000000000000000000000000000000000081526004018080602001828103825260208152602001807f53656e646572206d757374206f6e6c7920626520416c696365206f7220426f6281525060200191505060405180910390fd5b670de0b6b3a7640000341161021b576040517f08c379a000000000000000000000000000000000000000000000000000000000815260040180806020018281038252601e8152602001807f53656e646572206d7573742068617665206174206c656173742031455448000081525060200191505060405180910390fd5b600260009054906101000a900473ffffffffffffffffffffffffffffffffffffffff1673ffffffffffffffffffffffffffffffffffffffff163373ffffffffffffffffffffffffffffffffffffffff16141561028c5760016000806101000a81548160ff0219169083151502179055505b600360009054906101000a900473ffffffffffffffffffffffffffffffffffffffff1673ffffffffffffffffffffffffffffffffffffffff163373ffffffffffffffffffffffffffffffffffffffff1614156102fe576001600060016101000a81548160ff0219169083151502179055505b600190509056fea265627a7a72315820c92f25c87c7503539b8ae32406d8a3e2cd5e7c069b0c9dfb9644564132addd9d64736f6c63430005100032",
  "source": "pragma solidity >=0.4.21 <0.7.0;\n\nimport \"./../src/cdp.js\" as CDP;\n\n\n// import \"https://github.com/makerdao/dss-proxy-actions/blob/master/src/DssProxyActions.sol\";\n\ncontract Agreement {\n    bool private alice_committed = false;\n    bool private bob_committed = false;\n\n    int256 private balance = 0;\n\n    address alice_address;\n    address bob_address;\n\n    // constructor(address _bob) public {\n    //     alice_address = msg.sender;\n    //     bob_address = _bob;\n    // }\n\n    // Precondition G\n    function deposit() public payable returns (int256) {\n        require(\n            msg.sender == alice_address || msg.sender == bob_address,\n            \"Sender must only be Alice or Bob\"\n        );\n        require(msg.value > 1 ether, \"Sender must have at least 1ETH\"); // not sure if WEI == ETH?\n\n        if (msg.sender == alice_address) {\n            alice_committed = true;\n        }\n        if (msg.sender == bob_address) {\n            bob_committed = true;\n        }\n\n        // call deposit api here and return the balance\n\n        return 1;\n    }\n\n    // function invest() public payable returns (int256) {\n    //     require(alice_committed && bob_committed, \"Require both Alice and Bob to deposit\");\n\n    //     // open a cdp\n    // \tmaker_contract.open_cdp();\n    // \t// deposit the ETH with the contract's balance\n    // \tmaker_contract.deposit(self.balance);\n    // \t// generate the Daiw\n    // \tmaker_contract.draw_dai(150);\n    // \t// deposit Dai into the DSR\n    // \tmaker_contract.deposit_dsr(150);\n    //     return 1;\n\n    // }\n\n    // function exit() public payable returns (int256) {\n    //     require(alice_committed && bob_committed, \"Require both Alice and Bob to desposit\")\n\n    //     // // check if profit is high enough to exit\n    // \t// uint current_profit = maker_contract.get_dai_return();\n    // \t// require(current_profit > 5);\n\n    // \t// // leave maker\n    // \t// maker_contract.exit_dsr();\n    // \t// maker_contract.exit_cdp();\n    // \t// // at this point we get the 2 ETH we have deposited plus the 5 Dai profit\n    // \t// // transfer money to alice and bob\n    // \t// alice.transfer(1 ETH);\n    // \t// alice.transfer(2.5 Dai);\n    // \t// bob.transfer(1 ETH);\n    // \t// bob.transfer(2.5 Dai);\n    // }\n\n    function Balance() public view returns (int256) {\n        return balance;\n    }\n}\n",
  "sourcePath": "/home/paris/DeFi/truffle2/contracts/Agreement.sol",
  "compiler": {
    "name": "solc",
    "version": "0.5.16+commit.9c3226ce.Emscripten.clang"
  },
  "schemaVersion": "3.0.21",
  "updatedAt": "2020-05-01T04:19:59.895Z",
  "networkType": "ethereum",
  "devdoc": {
    "methods": {}
  },
  "userdoc": {
    "methods": {}
  }
}