{
  "contractName": "A",
  "abi": [
    {
      "constant": false,
      "inputs": [
        {
          "internalType": "address",
          "name": "_addressB",
          "type": "address"
        }
      ],
      "name": "setAddressB",
      "outputs": [],
      "payable": false,
      "stateMutability": "nonpayable",
      "type": "function"
    },
    {
      "constant": true,
      "inputs": [],
      "name": "callHelloWorld",
      "outputs": [
        {
          "internalType": "string",
          "name": "",
          "type": "string"
        }
      ],
      "payable": false,
      "stateMutability": "view",
      "type": "function"
    }
  ],
  "bytecode": "0x608060405234801561001057600080fd5b506102e7806100206000396000f3fe608060405234801561001057600080fd5b50600436106100365760003560e01c80633917b3df1461003b578063a4ef9cf4146100be575b600080fd5b610043610102565b6040518080602001828103825283818151815260200191508051906020019080838360005b83811015610083578082015181840152602081019050610068565b50505050905090810190601f1680156100b05780820380516001836020036101000a031916815260200191505b509250505060405180910390f35b610100600480360360208110156100d457600080fd5b81019080803573ffffffffffffffffffffffffffffffffffffffff16906020019092919050505061026f565b005b606060008060009054906101000a900473ffffffffffffffffffffffffffffffffffffffff1690508073ffffffffffffffffffffffffffffffffffffffff1663c605f76c6040518163ffffffff1660e01b815260040160006040518083038186803b15801561017057600080fd5b505afa158015610184573d6000803e3d6000fd5b505050506040513d6000823e3d601f19601f8201168201806040525060208110156101ae57600080fd5b81019080805160405193929190846401000000008211156101ce57600080fd5b838201915060208201858111156101e457600080fd5b825186600182028301116401000000008211171561020157600080fd5b8083526020830192505050908051906020019080838360005b8381101561023557808201518184015260208101905061021a565b50505050905090810190601f1680156102625780820380516001836020036101000a031916815260200191505b5060405250505091505090565b806000806101000a81548173ffffffffffffffffffffffffffffffffffffffff021916908373ffffffffffffffffffffffffffffffffffffffff1602179055505056fea265627a7a7231582026cf4bbd2b7f7f13a8916373c3c9b8b5b1bd1ea35e5c47d38fd4a31771334a8964736f6c63430005100032",
  "source": "pragma solidity >=0.4.21 <0.7.0;\n\nimport \"./B.sol\";\n\n\ncontract A {\n    // 1. call funtion of other contract\n    // 2. import keyword\n    // 3. contract interface\n    // 4. error propagation\n\n    // 1. interface of B -> B - already in the same file\n    // 2. address of B\n\n    address addressB;\n\n    function setAddressB(address _addressB) external {\n        addressB = _addressB;\n    }\n\n    function callHelloWorld() external view returns (string memory) {\n        B b = B(addressB);\n        return b.helloWorld();\n    }\n}\n",
  "sourcePath": "/home/paris/DeFi/truffle2/contracts/A.sol",
  "compiler": {
    "name": "solc",
    "version": "0.5.16+commit.9c3226ce.Emscripten.clang"
  },
  "schemaVersion": "3.0.21",
  "updatedAt": "2020-05-01T04:20:00.493Z",
  "networkType": "ethereum",
  "devdoc": {
    "methods": {}
  },
  "userdoc": {
    "methods": {}
  }
}